:1000000069EF03F00000000000EF00F000000000C6
:0A0010000000000000000000F3D71C
:10001C000134083609360450085E0550D8A0053C5A
:10002C00095E003601360F0E0C6E013408360936A7
:10003C00045000A006D0085E0550D8A0053C095E0F
:10004C0005D008260550D8B0053C092600360136E7
:10005C000C2EEBD700B006D0045008260550D8B0B3
:08006C00053C0926000012000A
:100074000450000A08E10550000A05E1FF0E006E75
:100084007F0E016E57D00D6A096A086A015000108C
:10009400D8B4000C015005180A6E0ABE0D1E0B6A76
:1000A40005AE05D0041E051E042AD8B4052A01AEE7
:1000B40005D0001E011E002AD8B4012A01500510E3
:1000C4000A6E0ABE10D0A8DF0BB020D00DAE000C13
:1000D400001E011E002AD8B4012A081E091E082A7F
:1000E400D8B4092A000C05AE0DD001BE07D00150CA
:1000F400096E0050086E016A006AE8D7016A006A56
:10010400002A000C011E001E0B2ADDD7082AD8B4D1
:10011400092A0450085CD8A4D9D70550095CD8A48E
:10012400D5D7096A086A002AD8B4012A01AECED705
:060134000000FF0C1200A8
:0C013A000E0E0D6E0D2EFED70000120000
:100146006ED0006ADAD0010E006ED7D0020E006EB5
:10015600D4D0030E006ED1D0040E006ECED0050EA4
:10016600006ECBD0060E006EC8D0070E006EC5D04E
:10017600080E006EC2D0090E006EBFD00A0E006EC9
:10018600BCD00B0E006EB9D00C0E006EB6D00D0EA4
:10019600006EB3D00E0E006EB0D00F0E006EADD056
:1001A600100E006EAAD0110E006EA7D0120E006EB1
:1001B600A4D0130E006EA1D0140E006E9ED0150EA4
:1001C600006E9BD0160E006E98D0170E006E95D05E
:1001D600180E006E92D0190E006E8FD01A0E006E99
:1001E6008CD01B0E006E89D01C0E006E86D01D0EA4
:1001F600006E83D01E0E006E80D01F0E006E7DD066
:10020600200E006E7AD0210E006E77D0220E006E80
:1002160074D0230E006E71D0FF0E006E6ED00101F9
:100226001C51000A8EE01C51010A8DE01C51020A85
:100236008DE01C51030A8DE01C51040A8DE01C510F
:10024600050A8DE01C51060A8DE01C51070A8DE057
:100256001C51080A8DE01C51090A8DE01C510A0A3E
:100266008DE01C510B0A8DE01C510C0A8DE01C51CF
:100276000D0A8DE01C510E0A8DE01C510F0A8DE00F
:100286001C51100A8DE01C51110A8DE01C51120AF6
:100296008DE01C51130A8DE01C51140A8DE01C518F
:1002A600150A8DE01C51160A8DE01C51170A8DE0C7
:1002B6001C51180A8DE01C51190A8DE01C511A0AAE
:1002C6008DE01C511B0A8DE01C511C0A8DE01C514F
:1002D6001D0A8DE01C511E0A8DE01C511F0A8DE07F
:1002E6001C51200A8DE01C51210A8DE01C51220A66
:0C02F6008DE01C51230A8DE08FD7120010
:1003020001011D6B6ED01D6BD9D0010E1D6FD6D0B1
:10031200030E1D6FD3D0070E1D6FD0D00F0E1D6FB1
:10032200CDD01F0E1D6FCAD0200E1D6FC7D0210E5B
:100332001D6FC4D0230E1D6FC1D0270E1D6FBED0FE
:10034200080E1D6FBBD0220E1D6FB8D0280E1D6F78
:10035200B5D0290E1D6FB2D02A0E1D6FAFD02B0E55
:100362001D6FACD02C0E1D6FA9D02D0E1D6FA6D007
:10037200300E1D6FA3D0310E1D6FA0D0320E1D6F37
:100382009DD0330E1D6F9AD0340E1D6F97D0350E4F
:100392001D6F94D0360E1D6F91D0370E1D6F8ED00B
:1003A200380E1D6F8BD0390E1D6F88D03A0E1D6F1F
:1003B20085D03B0E1D6F82D03C0E1D6F7FD03D0E4F
:1003C2001D6F7CD03E0E1D6F79D03F0E1D6F76D013
:1003D200040E1D6F73D0050E1D6F70D0FF0E1D6FC2
:1003E2006DD01C51000A8FE01C51010A8EE01C5195
:1003F200020A8EE01C51030A8EE01C51040A8EE0B0
:100402001C51050A8EE01C51060A8EE01C51070A97
:100412008EE01C51080A8EE01C51090A8EE01C5124
:100422000A0A8EE01C510B0A8EE01C510C0A8EE067
:100432001C510D0A8EE01C510E0A8EE01C510F0A4F
:100442008EE01C51100A8EE01C51110A8EE01C51E4
:10045200120A8EE01C51130A8EE01C51140A8EE01F
:100462001C51150A8EE01C51160A8EE01C51170A07
:100472008EE01C51180A8EE01C51190A8EE01C51A4
:100482001A0A8EE01C511B0A8EE01C511C0A8EE0D7
:100492001C511D0A8EE01C511E0A8EE01C511F0ABF
:1004A2008EE01C51200A8EE01C51210A8EE01C5164
:1004B200220A8EE01C51230A8EE090D71DC100F063
:0204C200120026
:1004C4000B6A0A6A096A00500402F4CF09F0F3CFF8
:1004D40008F001500502F4CF0BF0F3CF0AF00050FE
:1004E4000502F3500926F4500A22E86A0B2201504F
:1004F4000402F3500926F4500A22E86A0B2208C0C9
:1005040000F009C001F00AC002F00BC003F01200B1
:10051400C26AC00EC2120101111D006E0050C11644
:10052400C18CC18E18C100F00036009000360090D6
:10053400003600900050C212C280FDDDC284C2A405
:1005440001D0FDD7C4CF01F0006AC3500012000EE1
:060554000112C29012002A
:10055A000900F5CFE6FF0006FBE10106F9E112000A
:10056A0018C11CF1EBDD00C01BF1240E005C01E395
:10057A0066D001011A6B060E1A5D53E2060E006E72
:10058A00000E016E1BC104F0000E056E96DF150EFB
:10059A000026000E01221A510024E96E000E0120E5
:1005AA00EA6EEECF01F001C019F10150000A01E133
:1005BA0038D019512E0A11E1800E8C6E060E0B6E80
:1005CA00130E0C6EAD0E0D6E0D2EFED70C2EFCD733
:1005DA000B2EFAD70000000013D019512D0A10E192
:1005EA00080E8C6E060E0B6E130E0C6EAD0E0D6E93
:1005FA000D2EFED70C2EFCD70B2EFAD700000000CA
:10060A008C6A030E0B6E8A0E0C6E550E0D6E0D2E35
:10061A00FED70C2EFCD70B2EFAD7000000001A2B9F
:10062A00AAD7040E0B6E0C0E0C6E330E0D6E0D2E29
:10063A00FED70C2EFCD70B2EFAD7000000001200B2
:10064A00FF0E01011A6F196B240E195D0BE219C115
:10065A001CF152DE1851001803E119C11AF102D037
:0A066A00192BF2D71AC100F012009C
:1006740001011A51000A12E119511825006E016A8C
:10068400000E0122240E046E000E056EF1DC08C07B
:1006940000F009C001F000C01BF116D0240E0101C6
:1006A4001825006E016A000E01221951005E000E29
:1006B400015A240E046E000E056EDADC08C000F048
:0E06C40009C001F000C01BF11BC100F01200C4
:1006D2005FEC05F00E0EC16E010E926EFF0E936E70
:1006E200946A956A826A0101186B13DF00C012F1E5
:1006F20001C013F13F0E8114146F400E8114156F67
:10070200010E015C02E1000E005C40E2020E0B6E83
:10071200040E0C6EBA0E0D6E0D2EFED70C2EFCD7EB
:100722000B2EFAD7000089928994020E0B6E040EEA
:100732000C6EBA0E0D6E0D2EFED70C2EFCD70B2EA4
:10074200FAD7000014C11CF1FDDC00C016F1ED0E59
:10075200E96E000EEA6E0050E926D8B0EA2AEECF22
:100762008BFF14C118F1030E0101196F15C11AF1A3
:1007720080DF00C017F1ED0EE96E000EEA6E005048
:10078200E926D8B0EA2AEECF8CFF0AD1020E010187
:10079200135D02E1000E125D40E2020E0B6E040ECA
:1007A2000C6EBA0E0D6E0D2EFED70C2EFCD70B2E34
:1007B200FAD7000089928984020E0B6E040E0C6E29
:1007C200BA0E0D6E0D2EFED70C2EFCD70B2EFAD7BD
:1007D200000014C11CF1B6DC00C016F1ED0EE96E8A
:1007E200000EEA6E0050E926D8B0EA2AEECF8BFF5F
:1007F20014C118F1050E0101196F15C11AF139DF83
:1008020000C017F1ED0EE96E000EEA6E0050E92607
:10081200D8B0EA2AEECF8CFFC3D0030E0101135DDC
:1008220002E1000E125D48E2020E0B6E040E0C6E27
:10083200BA0E0D6E0D2EFED70C2EFCD70B2EFAD74C
:10084200000089828994020E0B6E040E0C6EBA0EA1
:100852000D6E0D2EFED70C2EFCD70B2EFAD70000F4
:100862001551000A13E114C11CF16CDC00C016F131
:10087200ED0EE96E000EEA6E0050E926D8B0EA2AC3
:10088200EECF8BFF14C118F16FDE15D08B6A14C145
:1008920018F1DADE00C017F10050FF0A0BE0ED0E8E
:1008A200E96E000EEA6E1751E926D8B0EA2AEECFB9
:1008B2008CFF01D08C6A74D0020E0B6E040E0C6E8B
:1008C200BA0E0D6E0D2EFED70C2EFCD70B2EFAD7BC
:1008D200000089828984020E0B6E040E0C6EBA0E21
:1008E2000D6E01010D2EFDD70C2EFBD70B2EF9D765
:1008F20000001551000A29E114C11CF123DC00C0DB
:1009020016F1ED0EE96E000EEA6E0050E926D8B03F
:10091200EA2AEECF8BFF020E0B6E040E0C6EBA0E9D
:100922000D6E0D2EFED70C2EFCD70B2EFAD7000023
:1009320016C118F1030E0101196F1A6B9ADE00C07D
:1009420017F100C018F110DE2BD08B6A020E0B6E6D
:10095200040E0C6EBA0E0D6E0D2EFED70C2EFCD7A9
:100962000B2EFAD7000014C118F16EDE00C017F189
:100972000050FF0A14E017C118F1030E196F010E9F
:100982001A6F77DE00C016F1ED0EE96E000EEA6E08
:100992000050E926D8B0EA2AEECF8CFF01D08C6A4B
:1009A200020E0B6E040E0C6EBA0E0D6E0D2EFED7DD
:0E09B2000C2EFCD70B2EFAD7000095D6FFD7DF
:100ABE0010EE15F0FD0E006E010E016EC00EF66EFC
:0E0ACE00090EF76E000EF86EADEC02F012008D
:1009C0002D2D2D2D2D002E2D2D2D2D002E2E2D2DAE
:1009D0002D002E2E2E2D2D002E2E2E2E2D002E2EC5
:1009E0002E2E2E002D2E2E2E2E002D2D2E2E2E00B4
:1009F0002D2D2D2E2E002D2D2D2D2E002E2D0000D7
:100A000000002D2E2E2E00002D2E2D2E00002D2E1E
:100A10002E0000002E00000000002E2E2D2E0000C3
:100A20002D2D2E0000002E2E2E2E00002E2E00002A
:100A300000002E2D2D2D00002D2E2D0000002E2D1E
:100A40002E2E00002D2D000000002D2E0000000095
:100A50002D2D2D0000002E2D2D2E00002D2D2E2DA4
:100A600000002E2D2E0000002E2E2E0000002D0046
:100A7000000000002E2E2D0000002E2E2E2D000036
:100A80002E2D2D0000002D2E2E2D00002D2E2D2D73
:080A900000002D2D2E2E0000A8
:100A9800BF86DBCFE6EDFD87FFE7777C395E7971AE
:100AA8006F76061F753855543F7367506D781C2A4A
:040AB8006A366E5BD1
:010ABC000F2A
:020000040030CA
:0D000100220F0EFF0181FF0FC00FE00F4026
:00000001FF
